S123010001060708090A0B0C0D0E0F10111617191B20FE22FE23FE24FE25FE26FE27FE28DA
S1230120FE29FE2AFE2BFE2CFE2DFE2EFE2FFE3031323334353637393B3E3F4043444647B6
S123014048494A4C4D4F505354565758595A5C5D5F60006300640066006700680069006AE2
S1230160006C006D006E006F007012347312347412347612347712347812347912347A121A
S1230180347C12347D12347E12347F1234800181018201840185018601880189018A018BD8
S12301A0018C00018DFE8E00019012911292129412951296129712981299129A129B129CC2
S12301C0129E129F12A004A104A204A404A504A604A704A804A904AA04AB04AC04AD04AE4E
S12301E004AF04B01234B11234B21234B41234B51234B61234B71234B81234B91234BA12A8
S123020034BB1234BC1234BD1234BE1234BF1234C001C101C201C401C501C601C801C9016C
S1230220CA01CB01CE0001D012D112D212D412D512D612D712D812D912DA12DB12DE12DF90
S123024012E012E112E212E412E512E612E712E812E912EA12EB12EE12EF12F01234F112A9
S123026034F21234F41234F51234F61234F71234F81234F91234FA1234FB1234FE1234FFDF
S1050280123432
S9030000FC
