S1230100010405060708090A0B0C0D0E0F1011161718191A1B20FE21FE22FE23FE24FE25EF
S1230120FE26FE27FE28FE29FE2AFE2BFE2CFE2DFE2EFE2FFE303132333435363738393AE1
S12301403B3C3D3E3F404344464748494A4C4D4F505354565758595A5C5D5F6000610204C5
S12301606202046300640065020466006700680069006A006B02046C006D006E006F007042
S123018012347102127202127312347412347502127612347712347812347912347A123458
S12301A07B02127C12347D12347E12347F1234800181018201830001840185018601880179
S12301C089018A018B018C00018DFE8E0001901291129212931294129512961297129812FD
S12301E099129A129B129C129D129E129F12A004A104A204A304A404A504A604A704A80451
S1230200A904AA04AB04AC04AD04AE04AF04B01234B11234B21234B31234B41234B5123437
S1230220B61234B71234B81234B91234BA1234BB1234BC12349D1234BE1234BF1234C00114
S1230240C101C201C30001C401C501C601C801C901CA01CB01CC0001CE0001D012D112D2A2
S123026012D312D412D512D612D712D812D912DA12DB12DC12DD12DE12DF12E012E112E2B2
S123028012E312E412E512E612E712E812E912EA12EB12EC12ED12EE12EF12F01234F11250
S12302A034F21234F31234F41234F51234F61234F71234F81234F91234FA1234FB1234FCAD
S10E02C01234FD1234FE1234FF12341D
S9030000FC
